{
  "_format": "hh-sol-artifact-1",
  "contractName": "PVAR",
  "sourceName": "contracts/PVAR.sol",
  "abi": [
    {
      "inputs": [],
      "stateMutability": "nonpayable",
      "type": "constructor"
    },
    {
      "anonymous": false,
      "inputs": [
        {
          "indexed": true,
          "internalType": "address",
          "name": "owner",
          "type": "address"
        },
        {
          "indexed": true,
          "internalType": "address",
          "name": "approved",
          "type": "address"
        },
        {
          "indexed": true,
          "internalType": "uint256",
          "name": "tokenId",
          "type": "uint256"
        }
      ],
      "name": "Approval",
      "type": "event"
    },
    {
      "anonymous": false,
      "inputs": [
        {
          "indexed": true,
          "internalType": "address",
          "name": "owner",
          "type": "address"
        },
        {
          "indexed": true,
          "internalType": "address",
          "name": "operator",
          "type": "address"
        },
        {
          "indexed": false,
          "internalType": "bool",
          "name": "approved",
          "type": "bool"
        }
      ],
      "name": "ApprovalForAll",
      "type": "event"
    },
    {
      "anonymous": false,
      "inputs": [
        {
          "indexed": false,
          "internalType": "address",
          "name": "account",
          "type": "address"
        }
      ],
      "name": "Paused",
      "type": "event"
    },
    {
      "anonymous": false,
      "inputs": [
        {
          "indexed": true,
          "internalType": "bytes32",
          "name": "role",
          "type": "bytes32"
        },
        {
          "indexed": true,
          "internalType": "bytes32",
          "name": "previousAdminRole",
          "type": "bytes32"
        },
        {
          "indexed": true,
          "internalType": "bytes32",
          "name": "newAdminRole",
          "type": "bytes32"
        }
      ],
      "name": "RoleAdminChanged",
      "type": "event"
    },
    {
      "anonymous": false,
      "inputs": [
        {
          "indexed": true,
          "internalType": "bytes32",
          "name": "role",
          "type": "bytes32"
        },
        {
          "indexed": true,
          "internalType": "address",
          "name": "account",
          "type": "address"
        },
        {
          "indexed": true,
          "internalType": "address",
          "name": "sender",
          "type": "address"
        }
      ],
      "name": "RoleGranted",
      "type": "event"
    },
    {
      "anonymous": false,
      "inputs": [
        {
          "indexed": true,
          "internalType": "bytes32",
          "name": "role",
          "type": "bytes32"
        },
        {
          "indexed": true,
          "internalType": "address",
          "name": "account",
          "type": "address"
        },
        {
          "indexed": true,
          "internalType": "address",
          "name": "sender",
          "type": "address"
        }
      ],
      "name": "RoleRevoked",
      "type": "event"
    },
    {
      "anonymous": false,
      "inputs": [
        {
          "indexed": true,
          "internalType": "address",
          "name": "from",
          "type": "address"
        },
        {
          "indexed": true,
          "internalType": "address",
          "name": "to",
          "type": "address"
        },
        {
          "indexed": true,
          "internalType": "uint256",
          "name": "tokenId",
          "type": "uint256"
        }
      ],
      "name": "Transfer",
      "type": "event"
    },
    {
      "anonymous": false,
      "inputs": [
        {
          "indexed": false,
          "internalType": "address",
          "name": "account",
          "type": "address"
        }
      ],
      "name": "Unpaused",
      "type": "event"
    },
    {
      "inputs": [],
      "name": "DEFAULT_ADMIN_ROLE",
      "outputs": [
        {
          "internalType": "bytes32",
          "name": "",
          "type": "bytes32"
        }
      ],
      "stateMutability": "view",
      "type": "function"
    },
    {
      "inputs": [],
      "name": "MINTER_ROLE",
      "outputs": [
        {
          "internalType": "bytes32",
          "name": "",
          "type": "bytes32"
        }
      ],
      "stateMutability": "view",
      "type": "function"
    },
    {
      "inputs": [],
      "name": "PAUSER_ROLE",
      "outputs": [
        {
          "internalType": "bytes32",
          "name": "",
          "type": "bytes32"
        }
      ],
      "stateMutability": "view",
      "type": "function"
    },
    {
      "inputs": [
        {
          "internalType": "address",
          "name": "to",
          "type": "address"
        },
        {
          "internalType": "uint256",
          "name": "tokenId",
          "type": "uint256"
        }
      ],
      "name": "approve",
      "outputs": [],
      "stateMutability": "nonpayable",
      "type": "function"
    },
    {
      "inputs": [
        {
          "internalType": "address",
          "name": "owner",
          "type": "address"
        }
      ],
      "name": "balanceOf",
      "outputs": [
        {
          "internalType": "uint256",
          "name": "",
          "type": "uint256"
        }
      ],
      "stateMutability": "view",
      "type": "function"
    },
    {
      "inputs": [
        {
          "internalType": "uint256",
          "name": "tokenId",
          "type": "uint256"
        }
      ],
      "name": "getApproved",
      "outputs": [
        {
          "internalType": "address",
          "name": "",
          "type": "address"
        }
      ],
      "stateMutability": "view",
      "type": "function"
    },
    {
      "inputs": [
        {
          "internalType": "bytes32",
          "name": "role",
          "type": "bytes32"
        }
      ],
      "name": "getRoleAdmin",
      "outputs": [
        {
          "internalType": "bytes32",
          "name": "",
          "type": "bytes32"
        }
      ],
      "stateMutability": "view",
      "type": "function"
    },
    {
      "inputs": [
        {
          "internalType": "bytes32",
          "name": "role",
          "type": "bytes32"
        },
        {
          "internalType": "address",
          "name": "account",
          "type": "address"
        }
      ],
      "name": "grantRole",
      "outputs": [],
      "stateMutability": "nonpayable",
      "type": "function"
    },
    {
      "inputs": [
        {
          "internalType": "bytes32",
          "name": "role",
          "type": "bytes32"
        },
        {
          "internalType": "address",
          "name": "account",
          "type": "address"
        }
      ],
      "name": "hasRole",
      "outputs": [
        {
          "internalType": "bool",
          "name": "",
          "type": "bool"
        }
      ],
      "stateMutability": "view",
      "type": "function"
    },
    {
      "inputs": [
        {
          "internalType": "address",
          "name": "owner",
          "type": "address"
        },
        {
          "internalType": "address",
          "name": "operator",
          "type": "address"
        }
      ],
      "name": "isApprovedForAll",
      "outputs": [
        {
          "internalType": "bool",
          "name": "",
          "type": "bool"
        }
      ],
      "stateMutability": "view",
      "type": "function"
    },
    {
      "inputs": [],
      "name": "name",
      "outputs": [
        {
          "internalType": "string",
          "name": "",
          "type": "string"
        }
      ],
      "stateMutability": "view",
      "type": "function"
    },
    {
      "inputs": [
        {
          "internalType": "uint256",
          "name": "tokenId",
          "type": "uint256"
        }
      ],
      "name": "ownerOf",
      "outputs": [
        {
          "internalType": "address",
          "name": "",
          "type": "address"
        }
      ],
      "stateMutability": "view",
      "type": "function"
    },
    {
      "inputs": [],
      "name": "pause",
      "outputs": [],
      "stateMutability": "nonpayable",
      "type": "function"
    },
    {
      "inputs": [],
      "name": "paused",
      "outputs": [
        {
          "internalType": "bool",
          "name": "",
          "type": "bool"
        }
      ],
      "stateMutability": "view",
      "type": "function"
    },
    {
      "inputs": [
        {
          "internalType": "bytes32",
          "name": "role",
          "type": "bytes32"
        },
        {
          "internalType": "address",
          "name": "account",
          "type": "address"
        }
      ],
      "name": "renounceRole",
      "outputs": [],
      "stateMutability": "nonpayable",
      "type": "function"
    },
    {
      "inputs": [
        {
          "internalType": "bytes32",
          "name": "role",
          "type": "bytes32"
        },
        {
          "internalType": "address",
          "name": "account",
          "type": "address"
        }
      ],
      "name": "revokeRole",
      "outputs": [],
      "stateMutability": "nonpayable",
      "type": "function"
    },
    {
      "inputs": [
        {
          "internalType": "address",
          "name": "to",
          "type": "address"
        },
        {
          "internalType": "string",
          "name": "uri",
          "type": "string"
        }
      ],
      "name": "safeMint",
      "outputs": [],
      "stateMutability": "nonpayable",
      "type": "function"
    },
    {
      "inputs": [
        {
          "internalType": "address",
          "name": "from",
          "type": "address"
        },
        {
          "internalType": "address",
          "name": "to",
          "type": "address"
        },
        {
          "internalType": "uint256",
          "name": "tokenId",
          "type": "uint256"
        }
      ],
      "name": "safeTransferFrom",
      "outputs": [],
      "stateMutability": "nonpayable",
      "type": "function"
    },
    {
      "inputs": [
        {
          "internalType": "address",
          "name": "from",
          "type": "address"
        },
        {
          "internalType": "address",
          "name": "to",
          "type": "address"
        },
        {
          "internalType": "uint256",
          "name": "tokenId",
          "type": "uint256"
        },
        {
          "internalType": "bytes",
          "name": "_data",
          "type": "bytes"
        }
      ],
      "name": "safeTransferFrom",
      "outputs": [],
      "stateMutability": "nonpayable",
      "type": "function"
    },
    {
      "inputs": [
        {
          "internalType": "address",
          "name": "operator",
          "type": "address"
        },
        {
          "internalType": "bool",
          "name": "approved",
          "type": "bool"
        }
      ],
      "name": "setApprovalForAll",
      "outputs": [],
      "stateMutability": "nonpayable",
      "type": "function"
    },
    {
      "inputs": [
        {
          "internalType": "bytes4",
          "name": "interfaceId",
          "type": "bytes4"
        }
      ],
      "name": "supportsInterface",
      "outputs": [
        {
          "internalType": "bool",
          "name": "",
          "type": "bool"
        }
      ],
      "stateMutability": "view",
      "type": "function"
    },
    {
      "inputs": [],
      "name": "symbol",
      "outputs": [
        {
          "internalType": "string",
          "name": "",
          "type": "string"
        }
      ],
      "stateMutability": "view",
      "type": "function"
    },
    {
      "inputs": [
        {
          "internalType": "uint256",
          "name": "tokenId",
          "type": "uint256"
        }
      ],
      "name": "tokenURI",
      "outputs": [
        {
          "internalType": "string",
          "name": "",
          "type": "string"
        }
      ],
      "stateMutability": "view",
      "type": "function"
    },
    {
      "inputs": [
        {
          "internalType": "address",
          "name": "from",
          "type": "address"
        },
        {
          "internalType": "address",
          "name": "to",
          "type": "address"
        },
        {
          "internalType": "uint256",
          "name": "tokenId",
          "type": "uint256"
        }
      ],
      "name": "transferFrom",
      "outputs": [],
      "stateMutability": "nonpayable",
      "type": "function"
    },
    {
      "inputs": [],
      "name": "unpause",
      "outputs": [],
      "stateMutability": "nonpayable",
      "type": "function"
    }
  ],
  "bytecode": "0x60806040523480156200001157600080fd5b5060405180604001604052806004815260200163282b20a960e11b815250604051806040016040528060048152602001635245535160e01b81525081600090805190602001906200006492919062000197565b5080516200007a90600190602084019062000197565b50506007805460ff191690555062000094600033620000f2565b620000c07f65d7a28e3265b37a6474929f336521b332c1681b933f6cb9f3376673440d862a33620000f2565b620000ec7f9f2df0fed2c77648de5860a4cc508cd0818c85b8b8a1ab4ceeef8d981c8956a633620000f2565b6200027a565b60008281526008602090815260408083206001600160a01b038516845290915290205460ff16620001935760008281526008602090815260408083206001600160a01b03851684529091529020805460ff19166001179055620001523390565b6001600160a01b0316816001600160a01b0316837f2f8788117e7eff1d82e926ec794901d17c78024a50270940304540a733656f0d60405160405180910390a45b5050565b828054620001a5906200023d565b90600052602060002090601f016020900481019282620001c9576000855562000214565b82601f10620001e457805160ff191683800117855562000214565b8280016001018555821562000214579182015b8281111562000214578251825591602001919060010190620001f7565b506200022292915062000226565b5090565b5b8082111562000222576000815560010162000227565b600181811c908216806200025257607f821691505b602082108114156200027457634e487b7160e01b600052602260045260246000fd5b50919050565b611fcc806200028a6000396000f3fe608060405234801561001057600080fd5b50600436106101735760003560e01c806370a08231116100de578063b88d4fde11610097578063d539139311610071578063d539139314610322578063d547741f14610349578063e63ab1e91461035c578063e985e9c51461038357600080fd5b8063b88d4fde146102e9578063c87b56dd146102fc578063d204c45e1461030f57600080fd5b806370a08231146102985780638456cb59146102ab57806391d14854146102b357806395d89b41146102c6578063a217fddf146102ce578063a22cb465146102d657600080fd5b80632f2ff15d116101305780632f2ff15d1461023957806336568abe1461024c5780633f4ba83a1461025f57806342842e0e146102675780635c975abb1461027a5780636352211e1461028557600080fd5b806301ffc9a71461017857806306fdde03146101a0578063081812fc146101b5578063095ea7b3146101e057806323b872dd146101f5578063248a9ca314610208575b600080fd5b61018b610186366004611c34565b6103bf565b60405190151581526020015b60405180910390f35b6101a86103d0565b6040516101979190611d79565b6101c86101c3366004611bfa565b610462565b6040516001600160a01b039091168152602001610197565b6101f36101ee366004611bd1565b6104ef565b005b6101f3610203366004611a84565b610605565b61022b610216366004611bfa565b60009081526008602052604090206001015490565b604051908152602001610197565b6101f3610247366004611c12565b610636565b6101f361025a366004611c12565b61065c565b6101f36106da565b6101f3610275366004611a84565b610710565b60075460ff1661018b565b6101c8610293366004611bfa565b61072b565b61022b6102a6366004611a38565b6107a2565b6101f3610829565b61018b6102c1366004611c12565b61085c565b6101a8610887565b61022b600081565b6101f36102e4366004611b38565b610896565b6101f36102f7366004611abf565b6108a1565b6101a861030a366004611bfa565b6108d9565b6101f361031d366004611b72565b6108e4565b61022b7f9f2df0fed2c77648de5860a4cc508cd0818c85b8b8a1ab4ceeef8d981c8956a681565b6101f3610357366004611c12565b61093e565b61022b7f65d7a28e3265b37a6474929f336521b332c1681b933f6cb9f3376673440d862a81565b61018b610391366004611a52565b6001600160a01b03918216600090815260056020908152604080832093909416825291909152205460ff1690565b60006103ca82610964565b92915050565b6060600080546103df90611ed4565b80601f016020809104026020016040519081016040528092919081815260200182805461040b90611ed4565b80156104585780601f1061042d57610100808354040283529160200191610458565b820191906000526020600020905b81548152906001019060200180831161043b57829003601f168201915b5050505050905090565b600061046d82610989565b6104d35760405162461bcd60e51b815260206004820152602c60248201527f4552433732313a20617070726f76656420717565727920666f72206e6f6e657860448201526b34b9ba32b73a103a37b5b2b760a11b60648201526084015b60405180910390fd5b506000908152600460205260409020546001600160a01b031690565b60006104fa8261072b565b9050806001600160a01b0316836001600160a01b031614156105685760405162461bcd60e51b815260206004820152602160248201527f4552433732313a20617070726f76616c20746f2063757272656e74206f776e656044820152603960f91b60648201526084016104ca565b336001600160a01b038216148061058457506105848133610391565b6105f65760405162461bcd60e51b815260206004820152603860248201527f4552433732313a20617070726f76652063616c6c6572206973206e6f74206f7760448201527f6e6572206e6f7220617070726f76656420666f7220616c6c000000000000000060648201526084016104ca565b61060083836109a6565b505050565b61060f3382610a14565b61062b5760405162461bcd60e51b81526004016104ca90611dde565b610600838383610afe565b6000828152600860205260409020600101546106528133610ca9565b6106008383610d0d565b6001600160a01b03811633146106cc5760405162461bcd60e51b815260206004820152602f60248201527f416363657373436f6e74726f6c3a2063616e206f6e6c792072656e6f756e636560448201526e103937b632b9903337b91039b2b63360891b60648201526084016104ca565b6106d68282610d93565b5050565b7f65d7a28e3265b37a6474929f336521b332c1681b933f6cb9f3376673440d862a6107058133610ca9565b61070d610dfa565b50565b610600838383604051806020016040528060008152506108a1565b6000818152600260205260408120546001600160a01b0316806103ca5760405162461bcd60e51b815260206004820152602960248201527f4552433732313a206f776e657220717565727920666f72206e6f6e657869737460448201526832b73a103a37b5b2b760b91b60648201526084016104ca565b60006001600160a01b03821661080d5760405162461bcd60e51b815260206004820152602a60248201527f4552433732313a2062616c616e636520717565727920666f7220746865207a65604482015269726f206164647265737360b01b60648201526084016104ca565b506001600160a01b031660009081526003602052604090205490565b7f65d7a28e3265b37a6474929f336521b332c1681b933f6cb9f3376673440d862a6108548133610ca9565b61070d610e8d565b60009182526008602090815260408084206001600160a01b0393909316845291905290205460ff1690565b6060600180546103df90611ed4565b6106d6338383610f08565b6108ab3383610a14565b6108c75760405162461bcd60e51b81526004016104ca90611dde565b6108d384848484610fd7565b50505050565b60606103ca8261100a565b7f9f2df0fed2c77648de5860a4cc508cd0818c85b8b8a1ab4ceeef8d981c8956a661090f8133610ca9565b600061091a60095490565b905061092a600980546001019055565b6109348482611179565b6108d38184611193565b60008281526008602052604090206001015461095a8133610ca9565b6106008383610d93565b60006001600160e01b03198216637965db0b60e01b14806103ca57506103ca8261121e565b6000908152600260205260409020546001600160a01b0316151590565b600081815260046020526040902080546001600160a01b0319166001600160a01b03841690811790915581906109db8261072b565b6001600160a01b03167f8c5be1e5ebec7d5bd14f71427d1e84f3dd0314c0f7b2291e5b200ac8c7c3b92560405160405180910390a45050565b6000610a1f82610989565b610a805760405162461bcd60e51b815260206004820152602c60248201527f4552433732313a206f70657261746f7220717565727920666f72206e6f6e657860448201526b34b9ba32b73a103a37b5b2b760a11b60648201526084016104ca565b6000610a8b8361072b565b9050806001600160a01b0316846001600160a01b03161480610ac65750836001600160a01b0316610abb84610462565b6001600160a01b0316145b80610af657506001600160a01b0380821660009081526005602090815260408083209388168352929052205460ff165b949350505050565b826001600160a01b0316610b118261072b565b6001600160a01b031614610b795760405162461bcd60e51b815260206004820152602960248201527f4552433732313a207472616e73666572206f6620746f6b656e2074686174206960448201526839903737ba1037bbb760b91b60648201526084016104ca565b6001600160a01b038216610bdb5760405162461bcd60e51b8152602060048201526024808201527f4552433732313a207472616e7366657220746f20746865207a65726f206164646044820152637265737360e01b60648201526084016104ca565b610be683838361126e565b610bf16000826109a6565b6001600160a01b0383166000908152600360205260408120805460019290610c1a908490611e7a565b90915550506001600160a01b0382166000908152600360205260408120805460019290610c48908490611e2f565b909155505060008181526002602052604080822080546001600160a01b0319166001600160a01b0386811691821790925591518493918716917fddf252ad1be2c89b69c2b068fc378daa952ba7f163c4a11628f55a4df523b3ef91a4505050565b610cb3828261085c565b6106d657610ccb816001600160a01b031660146112b4565b610cd68360206112b4565b604051602001610ce7929190611cc7565b60408051601f198184030181529082905262461bcd60e51b82526104ca91600401611d79565b610d17828261085c565b6106d65760008281526008602090815260408083206001600160a01b03851684529091529020805460ff19166001179055610d4f3390565b6001600160a01b0316816001600160a01b0316837f2f8788117e7eff1d82e926ec794901d17c78024a50270940304540a733656f0d60405160405180910390a45050565b610d9d828261085c565b156106d65760008281526008602090815260408083206001600160a01b0385168085529252808320805460ff1916905551339285917ff6391f5c32d9c69d2a47ea670b442974b53935d1edc7fd64eb21e047a839171b9190a45050565b60075460ff16610e435760405162461bcd60e51b815260206004820152601460248201527314185d5cd8589b194e881b9bdd081c185d5cd95960621b60448201526064016104ca565b6007805460ff191690557f5db9ee0a495bf2e6ff9c91a7834c1ba4fdd244a5e8aa4e537bd38aeae4b073aa335b6040516001600160a01b03909116815260200160405180910390a1565b60075460ff1615610ed35760405162461bcd60e51b815260206004820152601060248201526f14185d5cd8589b194e881c185d5cd95960821b60448201526064016104ca565b6007805460ff191660011790557f62e78cea01bee320cd4e420270b5ea74000d11b0c9f74754ebdbfc544b05a258610e703390565b816001600160a01b0316836001600160a01b03161415610f6a5760405162461bcd60e51b815260206004820152601960248201527f4552433732313a20617070726f766520746f2063616c6c65720000000000000060448201526064016104ca565b6001600160a01b03838116600081815260056020908152604080832094871680845294825291829020805460ff191686151590811790915591519182527f17307eab39ab6107e8899845ad3d59bd9653f200f220920489ca2b5937696c31910160405180910390a3505050565b610fe2848484610afe565b610fee8484848461149d565b6108d35760405162461bcd60e51b81526004016104ca90611d8c565b606061101582610989565b61107b5760405162461bcd60e51b815260206004820152603160248201527f45524337323155524953746f726167653a2055524920717565727920666f72206044820152703737b732bc34b9ba32b73a103a37b5b2b760791b60648201526084016104ca565b6000828152600660205260408120805461109490611ed4565b80601f01602080910402602001604051908101604052809291908181526020018280546110c090611ed4565b801561110d5780601f106110e25761010080835404028352916020019161110d565b820191906000526020600020905b8154815290600101906020018083116110f057829003601f168201915b50505050509050600061112b60408051602081019091526000815290565b905080516000141561113e575092915050565b815115611170578082604051602001611158929190611c98565b60405160208183030381529060405292505050919050565b610af6846115aa565b6106d6828260405180602001604052806000815250611681565b61119c82610989565b6111ff5760405162461bcd60e51b815260206004820152602e60248201527f45524337323155524953746f726167653a2055524920736574206f66206e6f6e60448201526d32bc34b9ba32b73a103a37b5b2b760911b60648201526084016104ca565b600082815260066020908152604090912082516106009284019061190d565b60006001600160e01b031982166380ac58cd60e01b148061124f57506001600160e01b03198216635b5e139f60e01b145b806103ca57506301ffc9a760e01b6001600160e01b03198316146103ca565b60075460ff16156106005760405162461bcd60e51b815260206004820152601060248201526f14185d5cd8589b194e881c185d5cd95960821b60448201526064016104ca565b606060006112c3836002611e5b565b6112ce906002611e2f565b67ffffffffffffffff8111156112f457634e487b7160e01b600052604160045260246000fd5b6040519080825280601f01601f19166020018201604052801561131e576020820181803683370190505b509050600360fc1b8160008151811061134757634e487b7160e01b600052603260045260246000fd5b60200101906001600160f81b031916908160001a905350600f60fb1b8160018151811061138457634e487b7160e01b600052603260045260246000fd5b60200101906001600160f81b031916908160001a90535060006113a8846002611e5b565b6113b3906001611e2f565b90505b6001811115611447576f181899199a1a9b1b9c1cb0b131b232b360811b85600f16601081106113f557634e487b7160e01b600052603260045260246000fd5b1a60f81b82828151811061141957634e487b7160e01b600052603260045260246000fd5b60200101906001600160f81b031916908160001a90535060049490941c9361144081611ebd565b90506113b6565b5083156114965760405162461bcd60e51b815260206004820181905260248201527f537472696e67733a20686578206c656e67746820696e73756666696369656e7460448201526064016104ca565b9392505050565b60006001600160a01b0384163b1561159f57604051630a85bd0160e11b81526001600160a01b0385169063150b7a02906114e1903390899088908890600401611d3c565b602060405180830381600087803b1580156114fb57600080fd5b505af192505050801561152b575060408051601f3d908101601f1916820190925261152891810190611c50565b60015b611585573d808015611559576040519150601f19603f3d011682016040523d82523d6000602084013e61155e565b606091505b50805161157d5760405162461bcd60e51b81526004016104ca90611d8c565b805181602001fd5b6001600160e01b031916630a85bd0160e11b149050610af6565b506001949350505050565b60606115b582610989565b6116195760405162461bcd60e51b815260206004820152602f60248201527f4552433732314d657461646174613a2055524920717565727920666f72206e6f60448201526e3732bc34b9ba32b73a103a37b5b2b760891b60648201526084016104ca565b600061163060408051602081019091526000815290565b905060008151116116505760405180602001604052806000815250611496565b8061165a846116b4565b60405160200161166b929190611c98565b6040516020818303038152906040529392505050565b61168b83836117ce565b611698600084848461149d565b6106005760405162461bcd60e51b81526004016104ca90611d8c565b6060816116d85750506040805180820190915260018152600360fc1b602082015290565b8160005b811561170257806116ec81611f0f565b91506116fb9050600a83611e47565b91506116dc565b60008167ffffffffffffffff81111561172b57634e487b7160e01b600052604160045260246000fd5b6040519080825280601f01601f191660200182016040528015611755576020820181803683370190505b5090505b8415610af65761176a600183611e7a565b9150611777600a86611f2a565b611782906030611e2f565b60f81b8183815181106117a557634e487b7160e01b600052603260045260246000fd5b60200101906001600160f81b031916908160001a9053506117c7600a86611e47565b9450611759565b6001600160a01b0382166118245760405162461bcd60e51b815260206004820181905260248201527f4552433732313a206d696e7420746f20746865207a65726f206164647265737360448201526064016104ca565b61182d81610989565b1561187a5760405162461bcd60e51b815260206004820152601c60248201527f4552433732313a20746f6b656e20616c7265616479206d696e7465640000000060448201526064016104ca565b6118866000838361126e565b6001600160a01b03821660009081526003602052604081208054600192906118af908490611e2f565b909155505060008181526002602052604080822080546001600160a01b0319166001600160a01b03861690811790915590518392907fddf252ad1be2c89b69c2b068fc378daa952ba7f163c4a11628f55a4df523b3ef908290a45050565b82805461191990611ed4565b90600052602060002090601f01602090048101928261193b5760008555611981565b82601f1061195457805160ff1916838001178555611981565b82800160010185558215611981579182015b82811115611981578251825591602001919060010190611966565b5061198d929150611991565b5090565b5b8082111561198d5760008155600101611992565b600067ffffffffffffffff808411156119c1576119c1611f6a565b604051601f8501601f19908116603f011681019082821181831017156119e9576119e9611f6a565b81604052809350858152868686011115611a0257600080fd5b858560208301376000602087830101525050509392505050565b80356001600160a01b0381168114611a3357600080fd5b919050565b600060208284031215611a49578081fd5b61149682611a1c565b60008060408385031215611a64578081fd5b611a6d83611a1c565b9150611a7b60208401611a1c565b90509250929050565b600080600060608486031215611a98578081fd5b611aa184611a1c565b9250611aaf60208501611a1c565b9150604084013590509250925092565b60008060008060808587031215611ad4578081fd5b611add85611a1c565b9350611aeb60208601611a1c565b925060408501359150606085013567ffffffffffffffff811115611b0d578182fd5b8501601f81018713611b1d578182fd5b611b2c878235602084016119a6565b91505092959194509250565b60008060408385031215611b4a578182fd5b611b5383611a1c565b915060208301358015158114611b67578182fd5b809150509250929050565b60008060408385031215611b84578182fd5b611b8d83611a1c565b9150602083013567ffffffffffffffff811115611ba8578182fd5b8301601f81018513611bb8578182fd5b611bc7858235602084016119a6565b9150509250929050565b60008060408385031215611be3578182fd5b611bec83611a1c565b946020939093013593505050565b600060208284031215611c0b578081fd5b5035919050565b60008060408385031215611c24578182fd5b82359150611a7b60208401611a1c565b600060208284031215611c45578081fd5b813561149681611f80565b600060208284031215611c61578081fd5b815161149681611f80565b60008151808452611c84816020860160208601611e91565b601f01601f19169290920160200192915050565b60008351611caa818460208801611e91565b835190830190611cbe818360208801611e91565b01949350505050565b7f416363657373436f6e74726f6c3a206163636f756e7420000000000000000000815260008351611cff816017850160208801611e91565b7001034b99036b4b9b9b4b733903937b6329607d1b6017918401918201528351611d30816028840160208801611e91565b01602801949350505050565b6001600160a01b0385811682528416602082015260408101839052608060608201819052600090611d6f90830184611c6c565b9695505050505050565b6020815260006114966020830184611c6c565b60208082526032908201527f4552433732313a207472616e7366657220746f206e6f6e20455243373231526560408201527131b2b4bb32b91034b6b83632b6b2b73a32b960711b606082015260800190565b60208082526031908201527f4552433732313a207472616e736665722063616c6c6572206973206e6f74206f6040820152701ddb995c881b9bdc88185c1c1c9bdd9959607a1b606082015260800190565b60008219821115611e4257611e42611f3e565b500190565b600082611e5657611e56611f54565b500490565b6000816000190483118215151615611e7557611e75611f3e565b500290565b600082821015611e8c57611e8c611f3e565b500390565b60005b83811015611eac578181015183820152602001611e94565b838111156108d35750506000910152565b600081611ecc57611ecc611f3e565b506000190190565b600181811c90821680611ee857607f821691505b60208210811415611f0957634e487b7160e01b600052602260045260246000fd5b50919050565b6000600019821415611f2357611f23611f3e565b5060010190565b600082611f3957611f39611f54565b500690565b634e487b7160e01b600052601160045260246000fd5b634e487b7160e01b600052601260045260246000fd5b634e487b7160e01b600052604160045260246000fd5b6001600160e01b03198116811461070d57600080fdfea26469706673582212209cdc0e3405ad8a26bc4cef339564585d1022d648b03d115c57fa085e771efb0464736f6c63430008040033",
  "linkReferences": {},
  "deployedLinkReferences": {}
}